{"abi":[{"type":"function","name":"addPerson","inputs":[{"name":"_name","type":"string","internalType":"string"},{"name":"_favoriteNumber","type":"uint256","internalType":"uint256"}],"outputs":[],"stateMutability":"nonpayable"},{"type":"function","name":"listOfPeople","inputs":[{"name":"","type":"uint256","internalType":"uint256"}],"outputs":[{"name":"favoriteNumber","type":"uint256","internalType":"uint256"},{"name":"name","type":"string","internalType":"string"}],"stateMutability":"view"},{"type":"function","name":"myFavoriteNumber","inputs":[],"outputs":[{"name":"","type":"uint256","internalType":"uint256"}],"stateMutability":"view"},{"type":"function","name":"nameToFavoriteNumber","inputs":[{"name":"","type":"string","internalType":"string"}],"outputs":[{"name":"","type":"uint256","internalType":"uint256"}],"stateMutability":"view"},{"type":"function","name":"retrieve","inputs":[],"outputs":[{"name":"","type":"uint256","internalType":"uint256"}],"stateMutability":"view"},{"type":"function","name":"store","inputs":[{"name":"_favoriteNumber","type":"uint256","internalType":"uint256"}],"outputs":[],"stateMutability":"nonpayable"}],"bytecode":{"object":"0x608060405234801561001057600080fd5b50610593806100206000396000f3fe608060405234801561001057600080fd5b50600436106100625760003560e01c80632e64cec1146100675780632ebce6311461007e5780636057361d1461009f5780636d83bc57146100b45780636f760f41146100bd5780638bab8dd5146100d0575b600080fd5b6000545b6040519081526020015b60405180910390f35b61009161008c36600461025c565b6100fb565b604051610075929190610299565b6100b26100ad36600461025c565b600055565b005b61006b60005481565b6100b26100cb366004610376565b6101b3565b61006b6100de3660046103bb565b805160208183018101805160028252928201919093012091525481565b6001818154811061010b57600080fd5b60009182526020909120600290910201805460018201805491935090610130906103f8565b80601f016020809104026020016040519081016040528092919081815260200182805461015c906103f8565b80156101a95780601f1061017e576101008083540402835291602001916101a9565b820191906000526020600020905b81548152906001019060200180831161018c57829003601f168201915b5050505050905082565b6040805180820190915281815260208101838152600180548082018255600091909152825160029091027fb10e2d527612073b26eecdfd717e6a320cf44b4afac2b0732d9fcbe2b7fa0cf68101918255915190917fb10e2d527612073b26eecdfd717e6a320cf44b4afac2b0732d9fcbe2b7fa0cf701906102349082610481565b505050806002836040516102489190610541565b908152604051908190036020019020555050565b60006020828403121561026e57600080fd5b5035919050565b60005b83811015610290578181015183820152602001610278565b50506000910152565b82815260406020820152600082518060408401526102be816060850160208701610275565b601f01601f1916919091016060019392505050565b634e487b7160e01b600052604160045260246000fd5b600082601f8301126102fa57600080fd5b813567ffffffffffffffff80821115610315576103156102d3565b604051601f8301601f19908116603f0116810190828211818310171561033d5761033d6102d3565b8160405283815286602085880101111561035657600080fd5b836020870160208301376000602085830101528094505050505092915050565b6000806040838503121561038957600080fd5b823567ffffffffffffffff8111156103a057600080fd5b6103ac858286016102e9565b95602094909401359450505050565b6000602082840312156103cd57600080fd5b813567ffffffffffffffff8111156103e457600080fd5b6103f0848285016102e9565b949350505050565b600181811c9082168061040c57607f821691505b60208210810361042c57634e487b7160e01b600052602260045260246000fd5b50919050565b601f82111561047c57600081815260208120601f850160051c810160208610156104595750805b601f850160051c820191505b8181101561047857828155600101610465565b5050505b505050565b815167ffffffffffffffff81111561049b5761049b6102d3565b6104af816104a984546103f8565b84610432565b602080601f8311600181146104e457600084156104cc5750858301515b600019600386901b1c1916600185901b178555610478565b600085815260208120601f198616915b82811015610513578886015182559484019460019091019084016104f4565b50858210156105315787850151600019600388901b60f8161c191681555b5050505050600190811b01905550565b60008251610553818460208701610275565b919091019291505056fea2646970667358221220416bcca77b7441dd2e5f38c9e40f2d4295a2fb5cbf4cc811ddb2d6b2a20ee09964736f6c63430008130033","linkReferences":{}},"methodIdentifiers":{"addPerson(string,uint256)":"6f760f41","listOfPeople(uint256)":"2ebce631","myFavoriteNumber()":"6d83bc57","nameToFavoriteNumber(string)":"8bab8dd5","retrieve()":"2e64cec1","store(uint256)":"6057361d"},"id":20}